:100000000C945D000C9485000C9485000C94850084
:100010000C9485000C9485000C9485000C9485004C
:100020000C9485000C9485000C9485000C9485003C
:100030000C9485000C9485000C9485000C9485002C
:100040000C94C4050C9485000C9434060C940E0694
:100050000C9485000C9485000C9485000C9485000C
:100060000C94A5040C948500000000080002010017
:100070000003040700000000000000000000000072
:10008000250028002B0000000000240027002A0083
:10009000040404040404040402020202020203032E
:1000A0000303030301020408102040800102040836
:1000B0001020010204081020660611241FBECFEF95
:1000C000D8E0DEBFCDBF11E0A0E0B1E0EAEDF1E1A4
:1000D00002C005900D92AC34B107D9F722E0ACE430
:1000E000B1E001C01D92A43CB207E1F710E0CDE5FC
:1000F000D0E004C02197FE010E94E508CC35D1076D
:10010000C9F70E94AE060C94EB080C94000090E036
:10011000FC01EC55FF4F249180579F4FFC018491C7
:10012000882399F090E0880F991FFC01EA57FF4F50
:10013000A591B491FC01E458FF4F859194918FB73C
:10014000F894EC91E22BEC938FBF089585ED8093AA
:10015000BC008091BC0084FDFCCF1092E9010895A1
:100160002091C301260F3327331F21323105ECF4D0
:100170002091E901FC0190E080E0243069F082E008
:100180000895A091C3012191AC014F555E4FA40F7A
:10019000B52FB11D2C930196861798F38091C3015A
:1001A000680F6093C30180E0089581E00895089589
:1001B00008950895E0919E0180919D01E81730F423
:1001C000F0E0E358FE4F808190E008958FEF9FEFBD
:1001D000089590919E0180919D012FEF3FEF981718
:1001E00048F4E92FF0E0E358FE4F208130E09F5FB4
:1001F00090939E01C901089580919D0190919E0167
:10020000891B990B0895CF92DF92EF92FF920F9383
:100210001F93CF93DF937C01CB018A0120917C0156
:10022000222389F0EB016B01C40ED51ECC15DD0530
:1002300069F06991D701ED91FC910190F081E02D79
:10024000C7010995F3CF642F0E94B000C801DF9168
:10025000CF911F910F91FF90EF90DF90CF90089575
:10026000CF93DF931F92CDB7DEB7698320917C01D6
:100270002223F9F020919F01203258F021E030E054
:10028000FC013383228390E080E00F90DF91CF91D7
:1002900008958091A001E82FF0E0E45AFE4F998183
:1002A00090838F5F8093A00180939F0181E090E015
:1002B000ECCF61E0CE0101960E94B000F7CF90E054
:1002C000FC01E859FF4F2491FC01EC55FF4F34919C
:1002D000FC01E057FF4FE491EE23C9F0222339F0EF
:1002E000233001F1A8F4213019F1223029F1F0E096
:1002F000EE0FFF1FE458FF4FA591B4918FB7F8940C
:10030000EC91611126C030953E233C938FBF089538
:100310002730A9F02830C9F0243049F780918000B7
:100320008F7D03C0809180008F7780938000DFCF26
:1003300084B58F7784BDDBCF84B58F7DFBCF809173
:10034000B0008F778093B000D2CF8091B0008F7DC6
:10035000F9CF3E2BDACF3FB7F894809158019091B6
:100360005901A0915A01B0915B0126B5A89B05C027
:100370002F3F19F00196A11DB11D3FBFBA2FA92F24
:10038000982F8827BC01CD01620F711D811D911D21
:1003900042E0660F771F881F991F4A95D1F708958D
:1003A0008F929F92AF92BF92CF92DF92EF92FF9285
:1003B0004B015C010E94AB016B017C010E94AB010F
:1003C0006C197D098E099F09683E7340810591056E
:1003D000A8F321E0821A9108A108B10888EEC80E9E
:1003E00083E0D81EE11CF11C81149104A104B10426
:1003F00029F7FF90EF90DF90CF90BF90AF909F9044
:100400008F900895AF92BF92CF92DF92EF92FF92BA
:100410000F931F93CF93DF936C017B018B01040F2C
:10042000151FEB015E01AE18BF08C017D10759F0C8
:100430006991D601ED91FC910190F081E02DC6010A
:100440000995892B79F7C501DF91CF911F910F9104
:10045000FF90EF90DF90CF90BF90AF900895FC0198
:10046000538D448D252F30E0842F90E0821B930B19
:10047000541710F0CF96089501970895FC01918DBF
:10048000828D981761F0A28DAE0FBF2FB11D5D96C2
:100490008C91928D9F5F9F73928F90E008958FEF64
:1004A0009FEF0895FC01918D828D981731F0828D18
:1004B000E80FF11D858D90E008958FEF9FEF08956F
:1004C000FC01918D228D892F90E0805C9F4F821BD3
:1004D00091098F73992708958BE192E00E94600241
:1004E00021E0892B09F420E0822F089580E090E03C
:1004F000892B29F00E946C0281110C940000089550
:10050000FC01A48DA80FB92FB11DA35ABF4F2C9188
:10051000848D90E001968F739927848FA689B7897F
:100520002C93A089B1898C91837080648C93938D76
:10053000848D981306C00288F389E02D80818F7D19
:1005400080830895EF92FF920F931F93CF93DF93D1
:10055000EC0181E0888F9B8D8C8D98131AC0E889FF
:10056000F989808185FF15C09FB7F894EE89FF89CE
:100570006083E889F98980818370806480839FBF6C
:1005800081E090E0DF91CF911F910F91FF90EF906C
:100590000895F62E0B8D10E00F5F1F4F0F7311277C
:1005A000E02E8C8D8E110CC00FB607FCFACFE889B7
:1005B000F989808185FFF5CFCE010E948002F1CFBD
:1005C000EB8DEC0FFD2FF11DE35AFF4FF0829FB72B
:1005D000F8940B8FEA89FB8980818062CFCFCF931B
:1005E000DF93EC01888D8823B9F0AA89BB89E8895B
:1005F000F9898C9185FD03C0808186FD0DC00FB601
:1006000007FCF7CF8C9185FFF2CF808185FFEDCF7E
:10061000CE010E948002E9CFDF91CF910895CF9360
:10062000FC01C48121E020937C01C0934C01109215
:10063000A00110929F018385682B8FE092E00E94B9
:10064000300190919F01913208F03FC08091E90103
:100650008111FCCF82E08093E90181E08093EB017E
:100660008FEF8093E80110920D0290930C02ACE59D
:10067000B1E0ECEEF1E080E098132FC010920E0292
:1006800080910E02CC0FC82BC0930E028091EA011C
:10069000813039F51092EA0180910E028093BB00FF
:1006A0008091BC0083FDF8CF85EC8093BC008091E5
:1006B000E9018230E1F38091E8018F3F31F08091D0
:1006C000E801803211F08091E8011092A0011092AF
:1006D0009F0110927C01CF9108952D9121938F5FFE
:1006E000CBCF85EEE2CF089590E080E00895FB0146
:1006F00001900020E9F73197AF01461B570BDC0151
:10070000ED91FC910280F381E02D09948F929F92EC
:10071000AF92BF92EF92FF920F931F93CF93DF930D
:10072000CDB7DEB7A1970FB6F894DEBF0FBECDBF31
:100730007C01FA01CB0119A2223008F42AE08E01D3
:100740000F5D1F4F822E912CB12CA12CBF01A50152
:1007500094010E94AD08F901CA016A300CF5605D90
:10076000D8016E938D01232B242B252B79F790E054
:1007700080E0109721F0BD01C7010E947703A19688
:100780000FB6F894DEBF0FBECDBFDF91CF911F91A2
:100790000F91FF90EF90BF90AF909F908F90089532
:1007A000695CDECF0F931F93CF938C01C62F0E94FD
:1007B0000F036C2F6460C8010E940F036C2F6B7FC6
:1007C000C8010E940F0383EC90E00197F1F7CF91ED
:1007D0001F910F9108950F931F93CF93DF938C0177
:1007E000D62FC42F607F642B0E94D20380E1D89F54
:1007F000B00111246C2BC801DF91CF911F910F9193
:100800000C94D203CF93DF93823028F09091BD02F5
:1008100098609093BD028093C00262E370E080E034
:1008200090E00E94D0016091C30288EB92E00E94A8
:100830000F0368EE73E080E090E00E94D00160E377
:1008400088EB92E00E94D203CBE4D6E4CE0101977C
:10085000F1F760E388EB92E00E94D2032197F1F771
:1008600060E388EB92E00E94D20383E592E0019777
:10087000F1F760E288EB92E00E94D2036091BD0242
:10088000606240E088EB92E00E94EB0384E080939A
:10089000BE0240E06CE088EB92E00E94EB0340E097
:1008A00061E088EB92E00E94EB03CBE3DFE1CE0155
:1008B0000197F1F782E08093BF0240E066E088EBA9
:1008C00092E00E94EB0340E062E088EB92E00E943D
:1008D000EB032197F1F7DF91CF910895CF93DF9349
:1008E000CDB7DEB728970FB6F894DEBF0FBECDBFE9
:1008F00098E0E0E0F1E0DE01119601900D929A950A
:10090000E1F79091C002981708F48FEF90E0880FFC
:10091000991F21E030E02C0F3D1F820F931FFC0137
:100920006081606840E088EB92E028960FB6F8940A
:10093000DEBF0FBECDBFDF91CF910C94EB0341E042
:100940000E94EB0381E090E008951F920F920FB692
:100950000F9211242F933F934F935F936F937F9345
:100960008F939F93AF93BF93EF93FF938091B900C1
:10097000887F803609F44AC0F0F5883209F4A7C0B0
:1009800018F5803109F49BC0B8F4882309F4F9C044
:10099000883009F494C0FF91EF91BF91AF919F917E
:1009A0008F917F916F915F914F913F912F910F9018
:1009B0000FBE0F901F901895883109F488C08032BF
:1009C00051F78093E80114C0803409F49DC040F4CD
:1009D0008033B9F38833F9F68093E80185ECB0C031
:1009E000803509F485C0883509F496C0883499F6B5
:1009F0000E94A600D0CF883909F48CC038F588371A
:100A000029F050F4883611F0803729F683E080937E
:100A1000E9011092E70157C0883809F47BC080399A
:100A200019F0803809F0B7CF8091E701803208F0E3
:100A300071C0E091E70181E08E0F8093E701809122
:100A4000BB00F0E0E953FE4F80833DC0803B39F0AE
:100A5000E0F4803A09F479C0883A09F09CCF84E048
:100A60008093E9011092C4011092C301E091C10189
:100A7000F091C20109958091C30181110FC081E0FD
:100A80008093C3011092A10109C0803C09F4A6CF54
:100A9000883C09F4A3CF883B09F07DCFE091C401E5
:100AA00081E08E0F8093C401F0E0EF55FE4F80810E
:100AB0008093BB009091C4018091C30129C08091B3
:100AC0000E028093BB0085EC8093BC0064CF9091B4
:100AD0000D0280910C02981758F5E0910D0281E00B
:100AE0008E0F80930D02F0E0E451FE4F8081E9CF3C
:100AF000E0910D0281E08E0F80930D028091BB008A
:100B0000F0E0E451FE4F808390910D0280910C0241
:100B10009817C8F285E8D8CFE0910D0281E08E0FDA
:100B200080930D028091BB00F0E0E451FE4F808382
:100B30008091EB0181115CCF81E08093EA0184EA2E
:100B40008093BC001092E90126CF85EC8093BC0015
:100B50001092E9018091E701803230F4E091E701E1
:100B6000F0E0E953FE4F10826091E70170E0E09100
:100B7000C501F091C60187EC91E009951092E7015B
:100B80000ACF1092E80134CF1F920F920FB60F9246
:100B900011242F933F938F939F93AF93BF93809193
:100BA000540190915501A0915601B0915701309197
:100BB000530123E0230F2D3758F50196A11DB11DD8
:100BC000209353018093540190935501A0935601B3
:100BD000B09357018091580190915901A0915A0109
:100BE000B0915B010196A11DB11D809358019093B6
:100BF0005901A0935A01B0935B01BF91AF919F91AE
:100C00008F913F912F910F900FBE0F901F901895CD
:100C100026E8230F0296A11DB11DD2CF1F920F927D
:100C20000FB60F9211242F933F934F935F936F93BF
:100C30007F938F939F93AF93BF93EF93FF938BE13A
:100C400092E00E948002FF91EF91BF91AF919F913E
:100C50008F917F916F915F914F913F912F910F9065
:100C60000FBE0F901F9018951F920F920FB60F9204
:100C700011242F938F939F93EF93FF93E0912B0277
:100C8000F0912C028081E0913102F091320282FDDC
:100C90001BC09081809134028F5F8F732091350249
:100CA000821741F0E0913402F0E0E55EFD4F958F50
:100CB00080933402FF91EF919F918F912F910F902C
:100CC0000FBE0F901F9018958081F4CFEFE0F2E0F7
:100CD0001382128288EE93E0A0E0B0E084839583D3
:100CE000A683B7832CE031E031832083EBE1F2E08F
:100CF0001382128284839583A683B7838EE191E069
:100D00009183808385EC90E09587848784EC90E0E4
:100D10009787868780EC90E0918B808B81EC90E0C8
:100D2000938B828B82EC90E0958B848B86EC90E0A9
:100D3000978B868B118E128E138E148EE8EBF2E059
:100D40001382128280E391E09183808387E284831F
:100D500080E1818782E0828713860895789484B544
:100D6000826084BD84B5816084BD85B5826085BDA7
:100D700085B5816085BD80916E00816080936E0035
:100D80001092810080918100826080938100809127
:100D900081008160809381008091800081608093D8
:100DA00080008091B10084608093B1008091B00098
:100DB00081608093B00080917A00846080937A0093
:100DC00080917A00826080937A0080917A008160BD
:100DD00080937A0080917A00806880937A001092E4
:100DE000C100E0912B02F0912C0282E08083E0911F
:100DF0002702F09128021082E0912902F0912A0244
:100E00008FEC808310923302E0912F02F091300238
:100E100086E08083E0912D02F0912E028081806136
:100E20008083E0912D02F0912E0280818860808382
:100E3000E0912D02F0912E02808180688083E09104
:100E40002D02F0912E0280818F7D808386E00E94AA
:100E5000870082E00E94020410929E0110929D0180
:100E60001092A00110929F011092E90181E08093FD
:100E7000EB011092EA0161E082E10E945F0161E012
:100E800083E10E945F018091B9008E7F8093B90059
:100E90008091B9008D7F8093B90088E48093B80079
:100EA00085E48093BC0087ED90E09093C20180932D
:100EB000C10188ED90E09093C6018093C501109226
:100EC000BD028091C2020E94020488E08093C302A6
:100ED00060E088EB92E00E940F0368E371E088EB2A
:100EE00092E00E94770300914D0110914E0140E085
:100EF00060E488EB92E00E94EB03D0E0C0E0FE01EA
:100F0000E00FF11F608188EB92E00E949F04219620
:100F1000C830D105A1F78BE3282E8FE1382EC12CE4
:100F200094E0D92EE12CF12C812C912C54018A943F
:100F300000E010E040E061E088EB92E00E94EB030B
:100F4000C1010197F1F780E00E946E0469E371E04E
:100F500088EB92E00E94770381E00E946E0480E4B7
:100F600080937C0080917A00806480937A008091E5
:100F70007A0086FDFCCF90917800809179008927D6
:100F80009827892790935201809351012C01092EB3
:100F9000000C660877082AE0B301A20197FF0DC094
:100FA0006DE28BE192E00E94A20244275527BA012C
:100FB00044195509660977092AE08BE192E00E94FD
:100FC000860368E471E08BE192E00E947703A091D0
:100FD0005101B09152012FEF30E00E94DE08A701CD
:100FE00096010E948E08722E632EC22FD32FD093AB
:100FF0005001C0934F0186E00E948700209709F0BE
:1010000042C060E086E00E945F01A0914F01B09174
:1010100050012AE030E00E94DE08A50194010E9400
:101020008E0829013A0130934E0120934D0181E051
:101030000E946E042AE0B301A20177FE0EC041E0D7
:101040006DE288EB92E00E94EB0344275527BA013A
:1010500044195509660977092AE088EB92E00E9455
:1010600086036EEE72E080E090E00E94D0010115F0
:10107000110509F45FCF0E946C02882309F45ACF4E
:101080000E94000057CFCF3FD10511F461E0BACFE5
:10109000EEE6F0E08491833029F140F48130C1F034
:1010A0008230D9F0C038D1058CF7ABCF873031F121
:1010B000883061F18430B1F7809180008062809344
:1010C0008000872D962D90938B0080938A009DCF72
:1010D00084B5806884BD77BC98CF84B5806284BDB8
:1010E00078BC93CF80918000806880938000872DAA
:1010F000962D909389008093880087CF8091B000CF
:1011000080688093B0007092B3007FCF8091B00070
:1011100080628093B0007092B40077CF052E97FB69
:101120001EF400940E94A50857FD07D00E94AD0848
:1011300007FC03D04EF40C94A508509540953095CB
:1011400021953F4F4F4F5F4F089590958095709533
:1011500061957F4F8F4F9F4F0895A1E21A2EAA1BD2
:10116000BB1BFD010DC0AA1FBB1FEE1FFF1FA21757
:10117000B307E407F50720F0A21BB30BE40BF50B54
:10118000661F771F881F991F1A9469F760957095DD
:10119000809590959B01AC01BD01CF010895A29F60
:1011A000B001B39FC001A39F700D811D1124911D3B
:1011B000B29F700D811D1124911D08950E94CF08CA
:1011C000B7FF0895821B930B0895EE0FFF1F059044
:0A11D000F491E02D0994F894FFCF8C
:1011DA000000400014005400000000003001030128
:1011EA007403D900FC00E900DA0000000000A20242
:1011FA0002022F02EF0260023E02520200000000C9
:10120A009F04020274037303204C4544204272690E
:0C121A006768746E657373000D0A0000B5
:00000001FF
