:100000000C945D000C9485000C9485000C94850084
:100010000C9485000C9485000C9485000C9485004C
:100020000C9485000C9485000C9485000C9485003C
:100030000C9485000C9485000C9485000C9485002C
:100040000C9467020C9485000C94D7020C94B102B6
:100050000C9485000C9485000C9485000C9485000C
:100060000C9485000C9485000000000024002700FB
:100070002A0000000000250028002B0004040404CE
:100080000404040402020202020203030303030342
:10009000010204081020408001020408102001021F
:1000A00004081020000000080002010000030407FB
:1000B0000000000000000000480411241FBECFEF24
:1000C000D8E0DEBFCDBF11E0A0E0B1E0E8EAF9E0A2
:1000D00002C005900D92A631B107D9F721E0A6E143
:1000E000B1E001C01D92AE3BB207E1F710E0CDE5F3
:1000F000D0E004C02197FE010E94CC04CC35D1078A
:10010000C9F70E9409030C94D2040C94000090E0FB
:10011000FC01EC55FF4F2491FC01E057FF4F349157
:10012000FC01E458FF4FE491EE23C9F0222339F09B
:10013000233001F1A8F4213019F1223029F1F0E047
:10014000EE0FFF1FEE58FF4FA591B4918FB7F894B3
:10015000EC91611126C030953E233C938FBF0895EA
:100160002730A9F02830C9F0243049F78091800069
:100170008F7D03C0809180008F7780938000DFCFD8
:1001800084B58F7784BDDBCF84B58F7DFBCF809125
:10019000B0008F778093B000D2CF8091B0008F7D78
:1001A000F9CF3E2BDACFCF93DF9390E0FC01E057FD
:1001B000FF4F249184589F4FFC0184918823D1F0F4
:1001C00090E0880F991FFC01E859FF4FA591B49169
:1001D000FC01EE58FF4FC591D49161110EC09FB73D
:1001E000F8948C91E22FE0958E238C932881E22362
:1001F000E8839FBFDF91CF9108958FB7F894EC917A
:10020000E22BEC938FBFF6CFAF92BF92CF92DF92EB
:10021000EF92FF920F931F93CF93DF936C017B01BB
:100220008B01040F151FEB015E01AE18BF08C0174C
:10023000D10759F06991D601ED91FC910190F081BF
:10024000E02DC6010995892B79F7C501DF91CF9182
:100250001F910F91FF90EF90DF90CF90BF90AF90E4
:100260000895FC01538D448D252F30E0842F90E0BC
:10027000821B930B541710F0CF96089501970895A1
:10028000FC01918D828D981761F0A28DAE0FBF2F6A
:10029000B11D5D968C91928D9F5F9F73928F90E0C0
:1002A00008958FEF9FEF0895FC01918D828D98172F
:1002B00031F0828DE80FF11D858D90E008958FEF6C
:1002C0009FEF0895FC01918D228D892F90E0805C35
:1002D0009F4F821B91098F739927089581E291E0C6
:1002E0000E94620121E0892B09F420E0822F089509
:1002F00080E090E0892B29F00E946E0181110C941E
:1003000000000895FC01A48DA80FB92FB11DA35AB8
:10031000BF4F2C91848D90E001968F739927848F25
:10032000A689B7892C93A089B1898C918370806448
:100330008C93938D848D981306C00288F389E02DE9
:1003400080818F7D80830895EF92FF920F931F939A
:10035000CF93DF93EC0181E0888F9B8D8C8D981378
:100360001AC0E889F989808185FF15C09FB7F89484
:10037000EE89FF896083E889F989808183708064D0
:1003800080839FBF81E090E0DF91CF911F910F911B
:10039000FF90EF900895F62E0B8D10E00F5F1F4F2A
:1003A0000F731127E02E8C8D8E110CC00FB607FC39
:1003B000FACFE889F989808185FFF5CFCE010E94C7
:1003C0008201F1CFEB8DEC0FFD2FF11DE35AFF4FB2
:1003D000F0829FB7F8940B8FEA89FB898081806255
:1003E000CFCFCF93DF93EC01888D8823B9F0AA8912
:1003F000BB89E889F9898C9185FD03C0808186FDE0
:100400000DC00FB607FCF7CF8C9185FFF2CF80812E
:1004100085FFEDCFCE010E948201E9CFDF91CF9120
:1004200008958F929F92AF92BF920F931F93CF9395
:10043000DF93CDB7DEB7A1970FB6F894DEBF0FBE3E
:10044000CDBF19A2423008F44AE08E010F5D1F4F64
:10045000842E912CB12CA12CA50194010E9494040E
:10046000E62FB901CA01EA3044F5E05DD801EE9308
:100470008D01232B242B252B79F790E080E010971A
:1004800069F0FD0101900020E9F73197AF014A1BA7
:100490005B0BBD0181E291E00E940401A1960FB6C1
:1004A000F894DEBF0FBECDBFDF91CF911F910F91AA
:1004B000BF90AF909F908F900895E95CD7CF42E0B6
:1004C00050E062E171E081E291E00C9404011F923E
:1004D0000F920FB60F9211242F933F938F939F93F8
:1004E000AF93BF9380911D0190911E01A0911F01B8
:1004F000B091200130911C0123E0230F2D3758F5D6
:100500000196A11DB11D20931C0180931D019093A4
:100510001E01A0931F01B0932001809118019091BA
:100520001901A0911A01B0911B010196A11DB11DE5
:100530008093180190931901A0931A01B0931B01A5
:10054000BF91AF919F918F913F912F910F900FBECF
:100550000F901F90189526E8230F0296A11DB11D3C
:10056000D2CF1F920F920FB60F9211242F933F9369
:100570004F935F936F937F938F939F93AF93BF93AB
:10058000EF93FF9381E291E00E948201FF91EF914E
:10059000BF91AF919F918F917F916F915F914F919B
:1005A0003F912F910F900FBE0F901F9018951F92A3
:1005B0000F920FB60F9211242F938F939F93EF9367
:1005C000FF93E0913101F09132018081E091370198
:1005D000F091380182FD1BC0908180913A018F5FBC
:1005E0008F7320913B01821741F0E0913A01F0E0D6
:1005F000EF5DFE4F958F80933A01FF91EF919F91B0
:100600008F912F910F900FBE0F901F9018958081A2
:10061000F4CF789484B5826084BD84B5816084BD54
:1006200085B5826085BD85B5816085BD80916E0090
:10063000816080936E0010928100809181008260C1
:1006400080938100809181008160809381008091FE
:1006500080008160809380008091B10084608093ED
:10066000B1008091B00081608093B00080917A00E9
:10067000846080937A0080917A00826080937A000F
:1006800080917A00816080937A0080917A008068FE
:1006900080937A001092C10061E086E00E94D3004E
:1006A00060E08EE00E94D300E0913101F0913201D0
:1006B00082E08083E0912D01F0912E011082E09183
:1006C0002F01F09130018FEC808310923901E0917D
:1006D0003501F091360186E08083E0913301F0919D
:1006E0003401808180618083E0913301F091340195
:1006F000808188608083E0913301F09134018081B2
:1007000080688083E0913301F091340180818F7D96
:10071000808380E4982E44244A9493E0592E612CDF
:10072000712C2AEAA22E20E0B22E00E010E0909276
:100730007C0080917A00806480937A0080917A00B6
:1007400086FDFCCF80917800C0917900DC2FC82F06
:100750006E010D2E000CEE08FF084AE0C701B6013D
:10076000D7FF0DC06DE281E291E00E94A4016627EF
:100770007727CB016C197D098E099F094AE00E94F9
:1007800011020E945F022FEF30E0DE010E94C504DB
:10079000A30192010E94750469017A013093170147
:1007A000209316014AE0C701B601F7FE0DC06DE2C5
:1007B00081E291E00E94A40166277727CB016C19A2
:1007C0007D098E099F094AE00E9411020E945F0282
:1007D000C0911601D091170161E086E00E94D3001C
:1007E000209781F460E086E00E94870001151105E2
:1007F00009F49DCF0E946E01882309F498CF0E94CE
:10080000000095CFCF3FD10511F461E0ECCFF501A9
:100810008491833019F140F48130B1F08230C9F015
:10082000C038D10594F7DECF873011F1883041F11F
:100830008430B1F780918000806280938000D093F3
:100840008B00C0938A00D2CF84B5806884BDC7BDB9
:10085000CDCF84B5806284BDC8BDC8CF80918000F3
:10086000806880938000D0938900C0938800BECFB9
:100870008091B00080688093B000C093B300B6CF81
:100880008091B00080628093B000C093B400AECF7E
:10089000E1E2F1E01382128288EE93E0A0E0B0E0A2
:1008A00084839583A683B78384E091E091838083DA
:1008B00085EC90E09587848784EC90E09787868725
:1008C00080EC90E0918B808B81EC90E0938B828B1D
:1008D00082EC90E0958B848B86EC90E0978B868BF6
:1008E000118E128E138E148E0895052E97FB1EF412
:1008F00000940E948C0457FD07D00E94940407FCCA
:1009000003D04EF40C948C0450954095309521956D
:100910003F4F4F4F5F4F089590958095709561952B
:100920007F4F8F4F9F4F0895A1E21A2EAA1BBB1B2A
:10093000FD010DC0AA1FBB1FEE1FFF1FA217B307AB
:10094000E407F50720F0A21BB30BE40BF50B661FC1
:10095000771F881F991F1A9469F760957095809585
:1009600090959B01AC01BD01CF010895A29FB001FC
:10097000B39FC001A39F700D811D1124911DB29FD3
:10098000700D811D1124911D08950E94B604B7FFBA
:100990000895821B930B0895EE0FFF1F0590F491AD
:0809A000E02D0994F894FFCF4B
:1009A80000000000A40104013101F10162014001CD
:0609B80054010D0A0000CD
:00000001FF
