:100000000C9458000C9480000C9480000C94800098
:100010000C9480000C9480000C9480000C94800060
:100020000C9480000C9480000C9480000C94800050
:100030000C9480000C9480000C9480000C94800040
:100040000C9475040C9480000C9480000C94800037
:100050000C9480000C9480000C9480000C94800020
:100060000C9447030C948000000000002500280039
:100070002B00040404040404040402020202020229
:10008000030303030303010204081020408001025C
:1000900004081020010204081020000000080002DB
:1000A0000100000304070000000000000000BF047E
:1000B00011241FBECFEFD8E0DEBFCDBF11E0A0E01E
:1000C000B1E0E0EEFBE002C005900D92A433B10771
:1000D000D9F722E0A4E3B1E001C01D92A930B20734
:1000E000E1F710E0C8E5D0E004C02197FE010E94CE
:1000F000E305C735D107C9F70E94DF040C94EE056C
:100100000C94000090E0FC01E656FF4F2491FC01A6
:10011000EA57FF4F3491FC01EE58FF4FE491EE2374
:10012000B1F1222339F1233091F038F42130A9F0D4
:10013000223001F584B58F7D12C0273091F0283030
:10014000A1F02430B9F4809180008F7D03C08091AC
:1001500080008F77809380000DC084B58F7784BD39
:1001600009C08091B0008F7703C08091B0008F7D6F
:100170008093B000F0E0EE0FFF1FE859FF4FA5910C
:10018000B4918FB7F894EC91E32BEC938FBF089563
:1001900085ED8093BC008091BC0084FDFCCF109263
:1001A000CB0108954091A501262F30E0240F311D89
:1001B00021323105DCF42091CB012430C9F4FC015B
:1001C00080E090E0861758F43091A5012191DC0180
:1001D000AD57BE4FA30FB11D2C930196F3CF809165
:1001E000A501680F6093A50180E0089581E008955E
:1001F00082E00895089508950895E0918001809126
:100200007F01E81730F4F0E0E15AFE4F808190E082
:1002100008958FEF9FEF08959091800180917F0165
:10022000981750F4E92FF0E0E15AFE4F208130E0BA
:100230009F5F9093800102C02FEF3FEFC9010895A7
:1002400080917F0190E020918001821B91090895A7
:10025000CF92DF92EF92FF920F931F93CF93DF9392
:100260007C01CB018A0120915E01222389F0EB0100
:100270006B01C40ED51ECC15DD0569F06991D7015F
:10028000ED91FC910190F081E02DC7010995F3CF2C
:10029000642F0E94D200C801DF91CF911F910F916E
:1002A000FF90EF90DF90CF900895CF93DF931F9250
:1002B000CDB7DEB7698320915E012223D1F0209172
:1002C0008101203240F021E030E0FC0133832283C1
:1002D00080E090E015C080918201E82FF0E0E25CC0
:1002E000FE4F998190838F5F80938201809381017B
:1002F00005C061E0CE0101960E94D20081E090E04D
:100300000F90DF91CF9108953FB7F89480913A0113
:1003100090913B01A0913C01B0913D0126B5A89B75
:1003200005C02F3F19F00196A11DB11D3FBFBA2F87
:10033000A92F982F8827820F911DA11DB11DBC01E7
:10034000CD0142E0660F771F881F991F4A95D1F7AC
:1003500008958F929F92AF92BF92CF92DF92EF92C9
:10036000FF926B017C010E9484014B015C01C1146E
:10037000D104E104F104F1F00E948401DC01CB011D
:1003800088199909AA09BB09883E9340A105B105BE
:1003900070F321E0C21AD108E108F10888EE880E56
:1003A00083E0981EA11CB11CC114D104E104F10426
:1003B00019F7DDCFFF90EF90DF90CF90BF90AF9017
:1003C0009F908F900895CF92DF92EF92FF920F93BC
:1003D0001F93CF93DF936C017A018B01C0E0D0E0D3
:1003E000CE15DF0581F0D8016D918D01D601ED911B
:1003F000FC910190F081E02DC6010995892B11F047
:100400002196EECF7E01C701DF91CF911F910F9111
:10041000FF90EF90DF90CF900895CF93FC01C481BF
:1004200021E020935E01C09334011092820110926A
:1004300081018385682B81EF91E00E9455019091A5
:100440008101913208F045C08091CB018111FCCF30
:1004500082E08093CB0181E08093CD018FEF809388
:10046000CA011092EF019093EE01AEE3B1E0EEEC21
:10047000F1E080E0981721F02D9121938F5FFACF62
:100480001092F0018091F001CC0FC82BC093F001C5
:100490008091CC01813061F41092CC018091F00107
:1004A0008093BB008091BC0083FDF8CF85EC01C038
:1004B00085EE8093BC008091CB018230E1F3809186
:1004C000CA018F3F31F08091CA01803211F08091D2
:1004D000CA01109282011092810110925E01CF91A7
:1004E00008950F931F93CF938C01C62F0E940D0286
:1004F0006C2F6460C8010E940D026C2F6B7FC801D5
:100500000E940D0283EC90E00197F1F7CF911F91CB
:100510000F9108950F931F93CF93DF938C01C62FF4
:10052000D42F607F642B0E94710280E1C89FB001CC
:1005300011246D2BC801DF91CF911F910F910C9465
:100540007102CF93DF93CDB7DEB728970FB6F8943B
:10055000DEBF0FBECDBF98E0E0E0F1E0DE01119616
:1005600001900D929A95E1F790910502981710F479
:100570008FEF890FFE013196E80FF11DE80FF11D95
:100580006081606840E08DEF91E028960FB6F894A6
:10059000DEBF0FBECDBFDF91CF910C948A02CF9307
:1005A000DF93823028F090910202986090930202CB
:1005B0008093050262E370E080E090E00E94A90170
:1005C000609108028DEF91E00E940D0268EE73E0E9
:1005D00080E090E00E94A90160E38DEF91E00E942D
:1005E0007102CBE4D6E4CE010197F1F760E38DEF21
:1005F00091E00E9471022197F1F760E38DEF91E0A5
:100600000E94710283E592E00197F1F760E28DEFBD
:1006100091E00E94710260910202606240E08DEF01
:1006200091E00E948A0284E08093030240E06CE043
:100630008DEF91E00E948A0240E061E08DEF91E051
:100640000E948A02CBE3DFE1CE010197F1F782E05D
:100650008093040240E066E08DEF91E00E948A0200
:1006600040E062E08DEF91E00E948A022197F1F76D
:10067000DF91CF91089541E00E948A0281E090E0ED
:100680000895089580E090E008950E94E9051F9282
:100690000F920FB60F9211242F933F934F935F93B6
:1006A0006F937F938F939F93AF93BF93EF93FF933A
:1006B0008091B900887F803609F49CC068F5883243
:1006C00009F45BC090F4803109F454C038F48823F5
:1006D00009F4F6C0883009F44DC0F6C0883109F439
:1006E0004CC0803209F45DC0EFC0803409F468C0AA
:1006F00048F4803309F455C0883309F0E5C080938D
:10070000CA01D8C0803509F44FC0883509F45DC0EE
:10071000883409F0D9C0D6C0883909F4C7C0A8F414
:10072000883709F467C038F4883609F463C0803725
:1007300009F460C0C9C0883809F4B8C0803909F428
:100740005FC0803809F0C0C05BC0803B09F486C040
:1007500038F4803A09F466C0883A09F47FC0B4C01E
:10076000803C09F4A7C0883C09F4A4C0883B09F484
:100770008AC0AAC08091F00110C09091EF018091D1
:10078000EE01981770F5E091EF0181E08E0F8093F4
:10079000EF01F0E0E253FE4F80818093BB0085ECD7
:1007A00086C08093CA018EC0E091EF0181E08E0F78
:1007B0008093EF018091BB00F0E0E253FE4F808315
:1007C0009091EF018091EE016EC0E091EF0181E028
:1007D0008E0F8093EF018091BB00F0E0E253FE4F5B
:1007E00080838091CD0181116DC081E08093CC0127
:1007F00084EA61C083E08093CB011092C901CFCF1E
:100800008091C901803208F051C0E091C90181E0B6
:100810008E0F8093C9018091BB00F0E0E755FE4F39
:100820008083BDCF85EC8093BC001092CB0180917A
:10083000C901803230F4E091C901F0E0E755FE4F84
:1008400010826091C90170E0E091A701F091A801C8
:1008500089EA91E009951092C90136C084E080933D
:10086000CB011092A6011092A501E091A301F09195
:10087000A40109958091A501811105C081E08093B3
:10088000A50110928301E091A60181E08E0F809373
:10089000A601F0E0ED57FE4F80818093BB00909160
:1008A000A6018091A501981708F479CF85E8809377
:1008B000BC000AC085EC8093BC001092CB0104C040
:1008C0001092CA010E94C800FF91EF91BF91AF91B1
:1008D0009F918F917F916F915F914F913F912F9158
:1008E0000F900FBE0F901F9018951F920F920FB68A
:1008F0000F9211242F933F938F939F93AF93BF93A6
:100900008091360190913701A0913801B091390161
:100910003091350123E0230F2D3720F40196A11DDE
:10092000B11D05C026E8230F0296A11DB11D20931D
:1009300035018093360190933701A0933801B0932D
:10094000390180913A0190913B01A0913C01B09115
:100950003D010196A11DB11D80933A0190933B0189
:10096000A0933C01B0933D01BF91AF919F918F91B6
:100970003F912F910F900FBE0F901F901895E1EFB0
:10098000F1E01382128288EE93E0A0E0B0E084836D
:100990009583A683B7838CE091E091838083EDEF0C
:1009A000F1E0138212828EE191E09183808387E2ED
:1009B000848380E1818782E0828713860895CF93C4
:1009C000DF93CDB7DEB7A1970FB6F894DEBF0FBEA9
:1009D000CDBF789484B5826084BD84B5816084BDC8
:1009E00085B5826085BD85B5816085BD80916E00CD
:1009F000816080936E0010928100809181008260FE
:100A0000809381008091810081608093810080913A
:100A100080008160809380008091B1008460809329
:100A2000B1008091B00081608093B00080917A0025
:100A3000846080937A0080917A00826080937A004B
:100A400080917A00816080937A0080917A0080683A
:100A500080937A001092C10082E00E94CF0210922F
:100A6000800110927F0110928201109281011092F8
:100A7000CB0181E08093CD011092CC0182E10E94F4
:100A8000820083E10E9482008091B9008E7F809372
:100A9000B9008091B9008D7F8093B90088E480937C
:100AA000B80085E48093BC008AEF90E09093A401A5
:100AB0008093A3018BEF90E09093A8018093A7010E
:100AC00010920202809107020E94CF0288E0809378
:100AD000080260E08DEF91E00E940D0280E00E942C
:100AE000A1024CE050E066E271E08DEF91E00E94DF
:100AF000E30188EEC82E83E0D82EE12CF12C9AE099
:100B0000492E512C612C712C20E0A22E20E0B22E17
:100B100081E00E94A1022FB7F89460913601709194
:100B2000370180913801909139012FBFA7019601BB
:100B30000E94C10519A28E010F5D1F4FCA01B901A4
:100B4000A30192010E94C105605DF80162938F01CB
:100B5000211531054105510589F7309761F0019064
:100B60000020E9F73197AF01401B510BB8018DEF21
:100B700091E00E94E301A114B10451F20E9400002F
:100B8000C7CFA1E21A2EAA1BBB1BFD010DC0AA1FD5
:100B9000BB1FEE1FFF1FA217B307E407F50720F0E6
:100BA000A21BB30BE40BF50B661F771F881F991F61
:100BB0001A9469F760957095809590959B01AC01AA
:100BC000BD01CF010895EE0FFF1F0590F491E02DB8
:100BD000099481E090E0F8940C94EE05F894FFCF2E
:100BE00000004000140054000000000055012801DE
:100BF0004203FC0020010C01FD00000000003B034B
:100C0000E3014203410348656C6C6F20576F726CBF
:040C1000642100005B
:00000001FF
